:020000022000DC
:107000000000042045FC02007DFC0200D5DF0200E8
:1070100081FC0200E1DF0200E7DF02000000000067
:10702000000000000000000000000000858F02004A
:1070300089FC0200000000001F9002002F90020057
:10704000AD36030009B402008FFC02008FFC020081
:107050008FFC02008FFC02008FFC02008FFC0200FC
:107060008FFC02008FFC02008FFC02008FFC0200EC
:107070008FFC0200B53A03008FFC020021B402002D
:107080008FFC02008FFC02008FFC02008FFC0200CC
:107090008FFC02008FFC02008FFC02008FFC0200BC
:1070A0008FFC02008FFC02008FFC02008FFC0200AC
:1070B0008FFC02008FFC02000000000000000000B6
:1070C0008FFC02008FFC02008FFC02008FFC02008C
:1070D0008FFC02008FFC02008FFC02008FFC02007C
:1070E0008FFC02008FFC02008FFC020000000000F9
:1070F000000000008FFC0200000000008FFC020076
:1071000010B5054C237833B9044B13B10448AFF3E1
:1071100000800123237010BD006E002000000000DD
:1071200004B2030008B5034B1BB103490348AFF396
:10713000008008BD00000000046E002004B20300BF
:10714000154B002B08BF134B9D46A3F5803A002139
:107150008B460F461348144A121A0EF001FE0F4BCD
:10716000002B00D098470E4B002B00D098470020F2
:10717000002104000D000D48002802D00C4807F043
:10718000C1FC0EF0FBF82000290003F073FF07F0AC
:10719000B6FC00BF00000800000004200000000052
:1071A000D1AF0200006E0020F00B012005EB0200C1
:1071B0000000000038B5104D0024E14301F001014A
:1071C0000E2001F085FE0121082001F081FE012141
:1071D000092001F07DFE0A21052001F0BDFD0A20F5
:1071E00001F0A6FE0A220146284601F032FD642085
:1071F00001F082FD0134E0E7546F002008B54FF440
:10720000E1310A4800F01AF901210E2001F01EFEBA
:107210000121082001F01AFE0121092001F016FECB
:1072200000210A20BDE8084001F010BE546F002084
:1072300030B5A1F11004002500F00F02D3B2092AE5
:10724000CCBF373330338B73CD7302398C424FEA66
:107250001010F1D130BD21207047000030B5012160
:1072600085B00C2001F0F2FD01210C2001F030FE70
:107270004FF080430024C3F85C4503F588334FF496
:107280008032C3F84823C3F80823A3F570436D4642
:10729000C3F80045C3F80045094B0FCB85E80F0044
:1072A000234620464FF0FF3155F823200133042BAD
:1072B000C2F80005C2F86015F6D105B030BD00BFB8
:1072C0001093030038B54FF0805504462146D5F899
:1072D000A800FFF7ADFFD5F8A40004F11001FFF7F7
:1072E000A7FF202038BD000072B64FF080434E2229
:1072F000C3F81C25BFF34F8F0549064BCA6802F43B
:10730000E0621343CB60BFF34F8F00BFFDE700BFC8
:1073100000ED00E00400FA0570470B6803604B685D
:1073200043608B6883607047C3680BB19B681847E4
:1073300070470020704770B590F834310546144608
:10734000F3B90368DB69984704F47063B3F5407FD1
:1073500004F0F0030CBF0721082104F00F02302BCA
:107360000CBF02230123012A08D0901E4242424151
:10737000A869BDE87040006804F010BA0222F7E77F
:1073800070BD10B590F8343104462BB9A369186864
:1073900004F02CFA0028F9D010BD38B590F834511B
:1073A0000446A5B983695BB1186848B10368DB6816
:1073B0009847A3691D600421A06907F0C3FDA5617A
:1073C0000023C4F82431C4F82831C4F82C3138BD66
:1073D00013B590F8343104466BBBA369186804F008
:1073E000F4F940B307F052F8A36918680368012262
:1073F0005B690DF107019847D4F82C31B3F5807F14
:1074000016D0D4F82C31B3F5807F11D0D4F82431C4
:107410009DF80720234483F82420D4F82431013335
:10742000DBB2C4F82431D4F82C310133C4F82C3148
:1074300007F042F8D1E702B010BD00007FB590F828
:10744000343104460D46002B34D1866926B9042018
:1074500007F062FDA0610660A369186860BB4FF485
:10746000807007F059FD2B4694F9212094F92010E3
:10747000064604F053FCA3691E6094F92220531CB5
:1074800006D0A06994F923300068032104F056FC6B
:10749000A369186870B10A4B03930022094B01934A
:1074A00069460094029204F0B2F9039B13B19B6801
:1074B0006846984704B070BD294604F05BF9DCE7E4
:1074C00020930300D173020010B4D0E901340168A5
:1074D0006210E40701EB020048BF8A585DF8044BD4
:1074E00048BFD3581847000008B590F834313BB175
:1074F000012001F001FC0648BDE8084001F032BA65
:1075000082691AB11368003318BF0123184608BDF9
:107510002076002010B50446FFF79DFE84423BBF55
:107520002401024B4FF0FF30185710BD04600020BB
:1075300070B504460D4601F015FA30B123682946AE
:1075400020461B6CBDE87040184770BDA0F5A070C8
:10755000EEE7000013B590F834318DF807100446BB
:107560002BB1C9B20B48FFF7E3FF02B010BDA3690E
:10757000186804F03BF90028F9D0A369186803687B
:1075800001221B690DF107019847013018BF012046
:10759000EBE700BF207600202DE9F0410746884642
:1075A000164601F0DFF970B10024A6420CD9351B54
:1075B000402D28BF402508EB04012A46384600F03C
:1075C000B7FE2C44F1E704462046BDE8F081A0F563
:1075D000A070E1E770B590F8343105460E461446C8
:1075E0002BB10F48FFF7D8FF0446204670BDAB69AA
:1075F000186804F0FBF80028F9D0AB691868D0F8D7
:10760000FC3001211B6BFC309847AB69186803689C
:1076100022461B6931469847013008BF0024E4E741
:107620002076002030B50446C3B001F015F9D4F837
:107630005832C3F5807398420546C4BFD4F85852F7
:10764000C5F580752A4601AB02A9204600F05AFF15
:10765000019902AB6D1A00221D44D4F85832B3F5DB
:10766000807F19D08A4217D0D4F85832B3F5807F82
:1076700010D0D4F85032A85C234483F85001D4F8D9
:1076800050320133DBB2C4F85032D4F858320133EF
:10769000C4F858320132E0E743B030BD38B5044693
:1076A00000F0EEFA2046FFF7BDFFD4F8585220460E
:1076B00000F0EEFA284638BDA0F5A070EEE7000015
:1076C00010B590F8343104462BB10648FFF7E6FFB9
:1076D0000446204610BD06F0D9FED4F82C4106F031
:1076E000EBFEF6E72076002038B5044600F0C8FA35
:1076F0002046FFF797FFD4F858324BB1D4F85432F4
:10770000234493F85051204600F0C2FA284638BD71
:107710004FF0FF35F7E7A0F5A070E5E710B590F85A
:10772000343104462BB10B48FFF7DEFF04462046F8
:1077300010BD06F0ABFED4F82C313BB1D4F82801D3
:10774000044494F8244006F0B7FEF0E74FF0FF340D
:10775000F9E700BF2076002038B5044600F090FA23
:107760002046FFF75FFFD4F85832A3B1D4F8543263
:10777000234493F85051D4F854320133DBB2C4F8A7
:107780005432D4F85832013BC4F85832204600F045
:107790007FFA284638BD4FF0FF35F7E7A0F5A07017
:1077A000DAE7000010B590F8343104462BB11148E7
:1077B000FFF7D2FF0446204610BD06F067FED4F85E
:1077C0002C319BB1D4F82831234493F82400D4F809
:1077D00028310133DBB2C4F82831D4F82C31013B15
:1077E000C4F82C31044606F067FEE4E74FF0FF349E
:1077F000F9E700BF2076002008B54FF48072002121
:107800000EF0AEFA0022C0F80021C0F80421C0F842
:10781000082108BD2DE9F843184C194F27600025B1
:107820004FF47A78C4E90158202604F12400C4E911
:107830000565E561FFF7E0FF0123072084F8343197
:10784000FFF768FE81460820FFF764FE0D4CFF231A
:1078500084F82100C4E9015804F124002760C4E938
:107860000565E56184F8209084F8223084F823309F
:10787000FFF7C2FF84F83451BDE8F883546F00204D
:10788000349303001C6E002000207047704770473F
:1078900010B5D0F88C452CB1236820465B6898471A
:1078A000A468F8E710BD38B5D0F88C450D4634B162
:1078B000236820469B6829469847A468F7E738BDA7
:1078C000004870470494030010B5054B036004465C
:1078D00005F049FD204605F05FFD204610BD00BFC4
:1078E0008493030010B50446FFF7EEFF20464FF4E3
:1078F000B26107F027FB204610BDF7B5D0F88C45E4
:1079000005460E460023A4B123683146DF680DF119
:10791000030201AB2046B8479DF803100429034633
:1079200005D0019A284604F07BFF03B0F0BDA4689F
:10793000E9E7019A9DF80310F4E770B505460E4695
:1079400022B10021BDE8704004F066BDD0F88C453E
:107950005CB1236800221B6931462046984710B16C
:1079600001212846EEE7A468F2E72146F9E770B561
:10797000D0F88C450E46054600213CB123683146BF
:1079800020465B699847A4680146F6E72846BDE8AB
:10799000704004F041BEF8B5D0F88C4505460E465F
:1079A00017463CB1236820469B693A4631469847C2
:1079B000A468F6E728460121BDE8F84004F08ABE35
:1079C00070B5002186B0044605F026F90023ADF815
:1079D000063023898DF810301B0AA188E2888DF8C3
:1079E00011304FF4897540F20123ADF80450ADF821
:1079F0001230022540F20313EF268DF807508DF860
:107A000009508DF80C100125090A8DF80E20ADF8EB
:107A10001430120A04F10A038DF808608DF80A5038
:107A20008DF80B008DF80D108DF80F2001AD05AE0F
:107A30001C462A4603CAB24218605960154603F133
:107A40000803F6D112881A80204606B070BDF8B53A
:107A5000002406460D46274630460EF051FDA04252
:107A600007D9335D05F8143005EB440301345F702A
:107A7000F2E7400000F0FE00F8BD38B5D0F88C55B4
:107A8000044635B12B6828461B6A984710B9AD6883
:107A9000F7E7284640F20233A4F8483504F24A5189
:107AA000FFF7D5FF94F84835184484F8480504F5E5
:107AB000A96038BD40F2023310B500F20A51044605
:107AC000A0F808350548FFF7C2FF94F808351844B8
:107AD00084F8080504F5A16010BD00BF60930300A1
:107AE00040F2023310B50446A0F8C83400F2CA4090
:107AF000FFF7E8FB94F8C834184484F8C80404F588
:107B0000996010BD2DE9FF4100238DF80A3090F8EF
:107B100088351B4A8DF80830012301928DF8093011
:107B20003222C0238DF80B308DF80C2001AB0446B7
:107B300000F54E7803CBC4F83803C8F8041088F871
:107B40000820D4F88C6509258EB1336800211B68A4
:107B500030469847478805F54E73093F00F1090103
:107B60003A46E0180DF0FEFF3D44B668ECE784F8B5
:107B70003A5340462D1284F83B5304B0BDE8F081DF
:107B80000902FFFF73B504460D46164607F00AFFCB
:107B90004FF480730093014633462A46204605F091
:107BA00003F8024B2360204602B070BD84930300AB
:107BB00010B5D0F88C350446A3B9C0F88C1594F8EC
:107BC00088350B7194F888354A79134484F88835E0
:107BD0000B6808465B6A9847238918442081012076
:107BE00010BD13469A68002AFBD19960E7E71FB5DC
:107BF000044604F0D3FF0146684604F05BF94021D7
:107C0000684604F0C6F9D4F88C4534B123682046A0
:107C1000DB6969469847A468F7E7684604F051F9BC
:107C200004B010BD10B50446FFF7E1FF2046BDE8E3
:107C3000104004F023BF000010B50D4C2378BFF3B3
:107C40005B8FDB0712D4204606F06AFF70B148F262
:107C5000450242F686010748FFF794FF204606F0EA
:107C600081FF054A0549034806F047FF014810BD5A
:107C70008C7000209070002000600020C978020005
:107C800010B5FFF7D9FF0368BDE810405B6F1847D8
:107C900010B5FFF7D1FF0368BDE810409B6F184790
:107CA00010B5FFF7C9FF0368BDE81040DB6F184748
:107CB00004F0ACBA04F06EBA04F098BA704770479A
:107CC0007047436A93F878007047D0F824017047F2
:107CD0000120704700487047589503002DE9F04F88
:107CE000044697B00F464B22002103A80EF038F847
:107CF000D4F82431267994F80EA094F80C90002B37
:107D000006F10105637B019314BF05200020EDB24D
:107D1000002F40F0978040F20923ADF80C304FF46B
:107D20008173ADF8103080238DF8133032238DF835
:107D3000143008238DF815300B2301218DF81630EF
:107D40008DF8250040F2022342F205404FF0240C4A
:107D50004FF0090E04274B22ADF818308DF8211092
:107D600002238DF82410ADF826004FF010080520EE
:107D70008DF82A108DF82D108DF82F104FF0030B71
:107D800006218DF80E208DF817608DF81A308DF8C9
:107D90001DE08DF81F608DF822308DF823308DF8AE
:107DA0002B008DF82CC08DF831C08DF832308DF855
:107DB00033108DF834008DF835C08DF81E708DF8B5
:107DC00029808DF82EB08DF830708DF8361007218F
:107DD0008DF839108DF8491044F20201ADF84C10BD
:107DE00040F20751ADF850101D349DF804108DF885
:107DF00037608DF838508DF83A008DF842508DF884
:107E00004A008DF852108DF8533044F20306402397
:107E100040F6022503A920468DF83BA0ADF83C6052
:107E20008DF83F808DF840E08DF84170ADF84450FA
:107E30008DF84B908DF854300DF094FE204617B01D
:107E4000BDE8F08F0020FAE738B505460A4B45F843
:107E5000D03B0446FFF7F0FE05F085FA284604F013
:107E600033F904F17C0004F02FF904F1700004F000
:107E70002BF9204638BD00BF1895030010B5044605
:107E8000FFF7E2FF20464FF4947107F05BF82046BD
:107E900010BDFFF705BF000010B5034B036004469B
:107EA00003F090FF204610BD4C94030010B504462B
:107EB000FFF7F2FF2046282107F044F8204610BDC6
:107EC00010B5034B0360044603F07CFF204610BD51
:107ED0001C94030010B50446FFF7F2FF204634213E
:107EE00007F030F8204610BD10B5034B0360044680
:107EF00003F068FF204610BD3494030010B504461B
:107F0000FFF7F2FF2046382107F01CF8204610BD8D
:107F100038B51C4B0D461968C0F80F1099889B792D
:107F200043750446A0F8131040220221284604F0AD
:107F300026F8402220730221284604F025F840222A
:107F400060730321284604F01AF8A073284603F052
:107F5000B9FF20B9AF220C490C4806F0EDF9002317
:107F600004F18502C4E9322304F1D90284F878309F
:107F700084F8843084F8D830C4F81C21C4F8203147
:107F800038BD00BF68940300A4940300FD9403006F
:107F90002DE9F34104460E461546FFF781FEF288AF
:107FA00023799A4237D1002D35D17778012F2ED100
:107FB000F378202B27D13289072A24D104F10F0826
:107FC00004F11605294640460DF09AFDD0B1D4F8CB
:107FD0001630C4F80F30207CE17B638BA4F813309B
:107FE00001EB0021607CE57C237F009501EB0041E3
:107FF0002568A07C637501EB0061237D627D6D6B5C
:108000002046A8473D46F378212B08BF0125284686
:1080100002B0BDE8F0810025F9E710B50446FFF78E
:108020003FFEFFF709FE217B05F03AF804F18503D6
:10803000C4F8C8300023C4F8CC3084F8843004F18C
:108040007C0003F0F6FF94F884302BB923682046B7
:10805000DB6BBDE81040184710BD000070B504464A
:10806000FFF71EFED4F820512DB140F2DD120F496A
:108070000F4806F061F904F1D903C4F81C31FFF789
:10808000DBFD617B04F06AFF84F8D850C4F820015E
:1080900004F1D00003F0CDFF94F8D8302BB9236859
:1080A00020469B6BBDE87040184770BDA494030048
:1080B0007494030010B4D0E9013401686210E4073D
:1080C00001EB020048BF8A585DF8044B48BFD35803
:1080D00018470000F0B5044687B002ADFFF7E0FD99
:1080E0000026FFF7A9FDA17B0095032340220596FA
:1080F00004F0DEFC2846FFF717F9FFF79DFD164B4D
:10810000217B164F00954022CDE9033602230597C7
:10811000029404F0CDFC2846FFF706F9FFF78CFD2A
:108120000F4B617B00954022CDE903360223059772
:10813000029404F0BDFC2846FFF7F6F8FFF77CFD3B
:108140004023D4F81C21617B04F0AAFE012084F8AE
:10815000D80007B0F0BD00BF1B8002005C94030094
:108160005D80020038B502234371002383600C4B0D
:10817000044640F8703B154603F04EFF04F17C00C6
:1081800003F04AFF04F1D00003F046FFC4F8245185
:10819000FFF752FD2146FFF70BFD204638BD00BF1B
:1081A0001895030070B504460D46FFF779FD84F875
:1081B0007850002D3ED194F8843033B1FFF73CFD68
:1081C000217B04F045FD84F8845004F1850304F11B
:1081D0007C0600253046C4F8C830C4F8CC5003F003
:1081E00028FF304603F01EFF28B9154915484FF403
:1081F000A27206F0A1F894F8D83033B1FFF71CFD55
:10820000217B04F025FD84F8D85004F1D903C4F88B
:108210001C3104F1D00500232846C4F8203103F0B6
:1082200008FF284603F0FEFE20B94FF4A772044968
:108230000548DEE704F17000BDE8704003F0F9BEC8
:10824000A4940300829403009394030010B50446A1
:10825000FFF726FD20460021BDE81040FFF7A2BF32
:1082600038B50D460446FFF71BFD042D05D020460A
:108270000021BDE83840FFF795BF38BDF8B5164678
:1082800004460D461F46FFF70BFD04233370EA88B2
:1082900023799A4225D16978012922D1EA78212AC5
:1082A00008D0222A0BD0202A4FF000001BD13070BA
:1082B000163401E031700F343C600720F8BDAB8804
:1082C00013F0010308BF19462046FFF76BFFAB8888
:1082D00003F00103E366AB8803F00203A366022305
:1082E00033700020EAE703233370E7E710B58AB064
:1082F0000446FFF7C5FC684603F058FD0A4B00939F
:10830000694604F17000099403F0ABFE2046FFF7C4
:10831000BFFC064B00211A68684603F091FD6846D1
:10832000FFF7BAFD0AB010BD4C940300709403002F
:1083300070B58EB0154604460E46FFF7A1FC01A8A5
:1083400003F034FD0E4B0C9501A9002504F17C00CF
:108350000193CDE90A468DF8345003F082FE2046A1
:10836000FFF796FC074B29461A6801A803F068FD41
:1083700001A89DF83440FFF7A3FD20460EB070BD64
:108380001C9403007094030010B50446FFF788FCAA
:1083900094F884307BB9D4F8CC3063B1FFF74CFC4F
:1083A000D4F8CC30217B04F1850204F017FE10B123
:1083B000012384F8843010BD2DE9F8431E4604469D
:1083C000894690469DF82070FFF75AFC00233360E1
:1083D00094F87830E3B194F88430CBB9D4F8CC5029
:1083E000C5F14005454528BF4546B8F1000F05D009
:1083F0002A464946D4F8C8000DF0B4FBD4F8CC3076
:108400002B44C4F8CC30356017B12046FFF7BCFFD1
:108410002046BDE8F843FFF73BBCF0B50446406A90
:1084200090F8785085B001262DB984F83050354643
:10843000284605B0F0BD04AB002743F8047DD4E91D
:108440000A120096FFF7B8FF0399E36AA26A5B1A63
:108450000A44E362A26213B984F83060E8E7606A14
:10846000FFF792FF3D46E3E72DE9F0431C4691B04C
:10847000904606468946FFF703FC002C08BF01AC76
:108480004FF00005256002A80CBF0127002703F06C
:108490008DFC104B029302A906F1D000CDE90D84AA
:1084A000CDE90B698DF83C708DF83D5003F0D9FD96
:1084B0003046FFF7EDFB084B29461A6802A803F087
:1084C000BFFC02A89DF83D40FFF70EFD204611B00D
:1084D000BDE8F083349403007094030010B5D0F825
:1084E000203104466BB990F8D83053B9FFF7A4FB9C
:1084F000402304F1D902617B04F0D2FC012384F80B
:10850000D83010BD70B51E4604460023336094F881
:1085100078300846EBB194F8D830D3B9D4F820516C
:10852000D4F81C11954228BF15462A460DF01AFBB7
:108530003560D4F81C31D4F820212B44551BC4F8E5
:108540001C31C4F8205125B92046BDE87040FFF722
:10855000C5BF70BD37B50446406A90F878502DB954
:1085600084F835500125284603B030BD02AB002207
:1085700043F8042DD4E90A12FFF7C4FF0199A26A57
:108580000A44A262226B13680B441360E36A0199E8
:108590005B1A94F83410E36209B9126802B91BB986
:1085A000012384F83530DEE7606AFFF797FF002586
:1085B000D9E76FF01500704700290CBF6FF0180065
:1085C00000207047012070476FF0150070476FF072
:1085D0001500704711207047704770477047036857
:1085E0009B6C1847A0F5A070F9E77047704770477B
:1085F00070470368184710B50446012000F07CFB63
:1086000094F8780010BDA0F5A070F4E738B54FF0ED
:10861000FF320123FF210B480B4D06F00BFE00F04B
:1086200059FB044695F878301BB1012000F064FB3B
:10863000F8E700F04FFB001BC728F6D9BDE838402B
:10864000FEF752BED87800202076002007B502AB96
:10865000012243F8041D1946FFF76AFE18B101987C
:1086600003B05DF804FB4FF0FF30F9E7A0F594701C
:10867000FFF7ECBF07B502A9002301F8013D012275
:10868000FFF7F2FE20B19DF8070003B05DF804FB90
:108690004FF0FF30F9E7A0F59470FFF7EBBF2DE93D
:1086A000F8430446884617461E46089DFFF7F8FA29
:1086B000D4F87092B9F1000F04D02B4632463946F7
:1086C0004046C847C4F86082C4F86472C4F868625F
:1086D000C4F86C52BDE8F88370B50646FFF7E0FABF
:1086E00006F51D740025D6F8B432AB4208D92046F1
:1086F000103454F8043C1BB11B6898470135F2E76D
:1087000070BD0000B0F5966F03D10121014806F05D
:1087100073BD7047D878002010B4D0E901340168E7
:108720006210E40701EB020048BF8A585DF8044B71
:1087300048BFD35818470000114B03F1780270B5B9
:108740000360C0F8282103F1D802E8330446C0F8DA
:108750002C21C0F8403100F51D7600F52D75AE4294
:1087600004D0103D2846FEF7DFFDF8E704F59470CD
:1087700005F0B2FA2046FFF767FB204670BD00BF48
:1087800098950300A0F59470FFF7D6BFA0F59670FA
:10879000FFF7D2BF10B50446FFF7CEFF20464FF4D7
:1087A0002E7106F0CFFB204610BDA0F59670FFF7A6
:1087B000F1BFA0F59470FFF7EDBF0000F7B50446D8
:1087C00015461F460E4607F0EDF8BDF8243001931C
:1087D000BDF8203000932A463B4601462046FFF76D
:1087E000C1FC002104F5947005F04CFA4FF47A7343
:1087F000C4F84831174B236003F178020025C4F810
:10880000282103F1D802E833C4F82C21C4F84451DC
:10881000C4F840314FF48072294604F5A8700DF079
:108820009FFAC4F85052C4F88052C4F85452C4F8A5
:108830009052C4F85852C4F8A052C4F8B052C4F8C8
:10884000B452C4F8705216B12046FFF74FFD2046CF
:1088500003B0F0BD9895030038B50546FFF710FA50
:1088600095F8D8304BB9D5F82041402C28BF40248A
:108870002846FFF70DFA204638BD0024F8E700002F
:1088800070B5044686B0FFF7FBF92D4BC4F8703283
:108890002046FFF7FDF92B4B05932B4B0393204606
:1088A000002302940493FFF7EBF9D4F8B452032D9C
:1088B00013D804EB05166B1C06F51D76C4F8B4320C
:1088C0003046FEF731FD04EB0515059BC5F88032F7
:1088D0001BB15B6802A9304698472046FFF7D8F9DC
:1088E00002A8FEF721FDBC2006F016FB0026174B60
:1088F0000360054631460661403006F023FD05F170
:10890000540006F0BDFC124B00934FF480723346C6
:108910002846182106F0B0FD0E4B05930E4BC4F807
:108920005C5202A92846CDE90236049606F0B0FD55
:1089300002A8FEF7F9FC2046FEF774FE06B070BDF3
:10894000058702007095030025760200B8AB03008E
:10895000889503007C9503000D860200A0F5A070A9
:10896000FFF78EBF90F878007047000037B50F4CC6
:108970000F4D204606F036FC2A460E49204606F0EA
:10898000BCF80D4C42F212030122CDE90032002264
:1089900011464FF4F8532046FFF710FF07492A46C7
:1089A000204603B0BDE8304006F0A7B8D8780020D4
:1089B00000600020FFF102002076002039870200CD
:1089C00008B50BF005FF2DE9F04F027D012A85B0B7
:1089D00005460E4640F0908000214FF0FF3B0446D4
:1089E0000B465F4694F804C048B2BCF1000F75D145
:1089F00094F805C0BCF1000F70D1B7F1FF3F1BBF69
:108A000001335BB201233846934201DD1A468346A7
:108A10000131082904F102045ED1002402EB0B03AA
:108A2000A1460293CB4502DC029B4B4559DC95F8ED
:108A3000058095F804A04FEA28170AF00F03FAB250
:108A40005FEA2A1A019208F00F0870D05FFA8AF1E3
:108A5000BAF1090FD4BF303157313046039300F0DB
:108A6000B0F8039B0444092B94BF03F1300103F1D8
:108A700057013046039300F0A4F80444BAF1000F04
:108A800002D1039B03B94FB1092F019FD4BF3037E7
:108A90005737F9B2304600F094F80444B8F1090FA2
:108AA00094BF08F1300108F15701304600F089F811
:108AB000B9F1070F044404D03A21304600F081F8A0
:108AC000044409F10109B9F1080F05F10205A9D122
:108AD000204605B0BDE8F08F074683E74FF0FF3032
:108AE00096E7CB45EDD1BBF1000FE5D13A213046F9
:108AF00000F067F80444DFE700F1100700F1130904
:108B0000002417F8011B0A22304600F0B9F82E2184
:108B10008046304600F055F8B94540440444F0D151
:108B20000A22E97C304600F0ABF80444D0E7002B81
:108B300099D1A8E710B5054B0360044601751022D2
:108B4000002104300DF00CF9204610BDB49603004E
:108B500070B5074D0560837400259DF810300575CC
:108B600045608560C56001744274C37470BD00BF08
:108B7000B496030007B501210648FFF7DBFF002389
:108B800000931A4619460448FFF7E2FF03B05DF868
:108B900004FB00BFEC7800200479002070B5044687
:108BA00008460D460DF0ACFC2368024629462046D7
:108BB0005B68BDE87040184709B1FFF7EFBF084692
:108BC000704703681B6818470149FFF7E7BF00BFFC
:108BD000EBA8030070B58AB00D460AA9002301F87E
:108BE000043D012A98BF0A22B5FBF2F402FB145699
:108BF000F3B2092E94BF30333733DBB2254601F888
:108C0000013D002CF0D1FFF7D7FF0AB070BD2DE970
:108C1000F04107460E4615462AB90368C9B21B68DB
:108C2000BDE8F04118470A2A05D1002905DBBDE857
:108C3000F041FFF7CFBFD2B2F9E72D21FFF7C1FF17
:108C40002A46044671423846FFF7C4FF2044BDE877
:108C5000F08138B50546FFF7DAFF04462846FFF7EE
:108C6000B3FF204438BD10B42AB903685DF8044B43
:108C70001B68C9B21847D2B25DF8044BFFF7AABF10
:108C8000FFF7F1BF10B500F039F8FEF7E7FAFEF78D
:108C9000D3FFFEF7C7FF4FF4E1310648064CFFF75C
:108CA000EFFDFEF7ABFAFEF785FA002CFBD0AFF331
:108CB0000080F8E7207600200000000010B5044690
:108CC00002F0D9FE204610BD10B5044602F0D3FED6
:108CD000204610BD07B50749684602F009FF4FF46A
:108CE0007A720023DDE900010BF0A2FB03B05DF80E
:108CF00004FB00BF2079002006F054BB08B50448EF
:108D000002F0C3FE0348BDE8084002F0BEBE00BF4B
:108D1000387900202079002038B50A4C0A4D2046C9
:108D200002F023FF2046094C09492A4605F0E5FEDA
:108D3000204602F025FF2A4620460649BDE8384075
:108D400005F0DBBE3879002000600020207900208B
:108D5000C98C0200BD8C0200F8B52DED028B0746D0
:108D600008EE101AFEF777FA874235D2204B214CD5
:108D70001A6801239340013B3E0107EE903AA31984
:108D8000B8EEC88AF8EEE77A9D68C8EE278AA5B9DA
:108D9000FEF761FA87424FF02C0034BFA7574FF01F
:108DA000FF3706F0B9F83946054602F0F3FBA31980
:108DB00002219D60284602F0B3FBF5EEC08AF1EE79
:108DC00010FA0CD5284602F009FC34442C21284620
:108DD00006F0B8F80023A360BDEC028BF8BD18EED6
:108DE000901ABDEC028B2846BDE8F84002F08ABB21
:108DF000146200200460002008B590F900305A1C6D
:108E000004D121220E490F4805F096FA012259B1EA
:108E10001F2B86BF03F01F030B494FF0A04102FA3E
:108E200003F3C1F8083508BD1F2B86BF03F01F03ED
:108E300005494FF0A04102FA03F3C1F80C35F2E7FF
:108E4000B896030038970300000300502DE9F8435B
:108E50001E4D0601AB190446D868884610B10121A1
:108E600006F070F8FEF7F7F984424FF0010034BFC6
:108E700015F906904FF0FF3906F04EF800270770FD
:108E800049463544044604F046FBB8F1010FEC6056
:108E900011D007D3B8F1020F12D0204602F017FB11
:108EA000012103E0204602F012FB39462046BDE8CE
:108EB000F84302F019BB2046BDE8F84302F0FABAC5
:108EC000204602F004FB0321F0E700BF046000200D
:108ED0002DE9F34107468846FEF7BDF9874221D2C6
:108EE000124C3E01A319DD68ADB9FEF7B4F9874213
:108EF0004FF0010034BFA7574FF0FF3706F00CF8D2
:108F000034440023054603700122CDF80080394621
:108F100004F004FBE5604146284602B0BDE8F0419C
:108F2000FFF76ABF02B0BDE8F08100BF0460002017
:108F3000F7B50746FEF78FF987421FD2104C3E0166
:108F4000A319DD68A5B9FEF786F987424FF0010045
:108F500034BFA7574FF0FF3705F0DEFF344400233E
:108F6000054603701A460093394604F0D7FAE560C7
:108F7000284607F09DF9C0B203B0F0BD0020FBE722
:108F8000046000201EF0040F0CBFEFF30880EFF325
:108F90000980816911F8021C002932D101B590E8DD
:108FA0000F10E047BDE800508CE80300244B93E825
:108FB0000600914208BF70471A6041B91EF0100FB9
:108FC00010D1204B186820F0010018600AE02CE94D
:108FD000F00F1EF0100F08BF2CED108A81F822E070
:108FE000C1F838C0906B92F8221061F0FF0E1EF0AD
:108FF000100F08BFB0EC108AB0E8F00F80F30988BA
:109000007047114A13689942FAD801B552F821C045
:109010000FC8E047BDE80050CCF80000704701B52C
:1090200001F030FBBDE80140EFF3098CBEE701B56C
:1090300001F0ECFABDE80140EFF3098CB6E700005F
:109040002C62002034EF00E01898030008B50146B8
:1090500030B96FF0030000F0F2F96FF0030008BDC3
:10906000132001F097FE30B94FF0FF3000F0E7F920
:109070004FF0FF30F3E70020F1E7000008B5EFF311
:1090800005832BB9EFF3108313B9EFF3118333B1D9
:109090006FF0050000F0D3F96FF0050008BDDFF8B0
:1090A00008C000DFFAE700BF4D900200EFF3108325
:1090B0002BB9EFF31180003818BF01207047012051
:1090C0007047000038B538B3846805686CB114F097
:1090D000030302D1C2680F2A13D86FF008010020E1
:1090E00002F0A0F80024204638BDC368002BF4D15C
:1090F000104BD3F8900088B100F0FCFB0446A0B1FF
:109100000123A3700023C4E90233F322094B227028
:10911000094A65605A66E6E70546E9E7D3F8800044
:109120000122102100F072FBE8E76FF0040102F069
:1091300079F8D8E7186200201592020070B505464C
:1091400010B10378F32B07D028466FF0030102F02B
:1091500069F86FF0030070BD836863B1284601F0C1
:10916000EDFB00226FF0020101F06CFDA868002801
:10917000F4D101F051FCAB78002613F001032E70FE
:109180000FD0094BD3F89040294624B1204600F077
:10919000CBFB3046DFE7D3F8800000F06CFB2046C5
:1091A000D9E71846D7E700BF18620020930710B52B
:1091B00002F0010422D400F10C0384B153E8000F43
:1091C00000EA01028A4203D0BFF32F8F002005E09E
:1091D00020EA010243E8002404B1EFE710BD53E8A0
:1091E000000F084203D1BFF32F8F002005E020EAD3
:1091F000010243E8002404B1F1E7EFE7C06801EAA7
:1092000000031CB18B4218BF0020E7E7002B08BF0A
:109210000020E3E7F8B58468054604B9F8BD94F882
:109220002320616AA7682846FFF7C0FF064638B1C9
:10923000204601F08CFB00223146204601F002FD61
:109240003C46EAE7F8B50D4617461E46044620B1EF
:109250000378F32B01D1002907DA20466FF00301D0
:1092600001F0E0FF6FF00300F8BDFFF79FFF00285B
:10927000FAD186B13146432001F08CFD40B1074B55
:109280005E692046314601F047FB756286F823701F
:109290006FF00100E8E76FF00200E5E718620020D8
:1092A0002DE9F041064620B10378F32B01D10029C6
:1092B00009DA6FF00301304601F0B4FF6FF00305E7
:1092C0002846BDE8F08100F10C0353E8002F42EA84
:1092D000010543E8005000B1F7E7B4681CB9204627
:1092E00001F09AFBECE794F82320616AD4F8088037
:1092F0003046FFF75BFF074678B194F823309B07B1
:1093000056BF656A054620EA0505204601F01FFBA9
:1093100000223946204601F095FC4446DEE7000075
:1093200008B50246EFF3058333B100206FF0050165
:1093300001F078FF002008BDFFF7B8FE0028F4D147
:10934000DFF808C0104600DFF5E700BFC590020057
:1093500038B502460D46EFF305834BB192B96FF075
:109360000301104601F05EFF6FF00304204638BD94
:10937000FFF79CFE0028F1D1DFF830C0104600DF77
:109380000446F3E71378F32BE9D1002DE7DB02F174
:109390000C0353E8001F41EA050443E8004000B114
:1093A000F7E7104601F0B6F9E0E700BFA19202002E
:1093B000F8B504460E4617461D46EFF3058343B144
:1093C0008CB920466FF0030101F02CFF6FF0030011
:1093D000F8BDFFF76BFE0028F2D1DFF82CC0204665
:1093E0002B4600DFF4E72378F32BEAD1002DE8D1F8
:1093F000002EE6DB3A4631462046FFF7D7FE00282E
:1094000008BF6FF00200E3E74592020008B502468C
:10941000EFF305833BB110466FF0050101F002FF49
:109420006FF0050008BDFFF741FE0028F3D1DFF81B
:1094300008C0104600DFF5E73D9102007047704715
:10944000EFF310832BB9EFF31180003818BF012020
:109450007047012070470000064BDA6A3AB1D069C4
:109460005B6C1BB11B69984228BF184670474FF0D0
:10947000FF30F5E71862002070B5464C237A012BC7
:1094800000F0858033B14FF0FF3001F0BFFE4FF0A8
:10949000FF3070BD404DD5E90B61EB68E3652B8A69
:1094A000A4F854303046AB68236400F097F908B153
:1094B000C4F88060D5E90561304600F08FF908B93D
:1094C000D4F880606667D5E90761304600F086F918
:1094D00008B9D4F88060A667D5E90961304600F084
:1094E0007DF908B9D4F88060E6676E6B3EB1D6E9C5
:1094F00002233168304600F0DCF9C4F88460AE6BBA
:109500003EB1D6E902233168304600F0D2F9C4F802
:109510008860EE6B3EB1D6E902233168304600F038
:10952000C8F9C4F88C602E6C3EB1D6E902233168CC
:10953000304600F0BEF9C4F890606E6C3EB1D6E9DA
:1095400002233168304600F0B4F9C4F89460AE6C80
:109550003EB1D6E902233168304600F0AAF9C4F8DA
:109560009860EE6C3EB1D6E902233168304600F0D7
:10957000A0F9C4F89C602D6D3DB1D5E9022329689E
:10958000284600F096F9C4F8A05001232372002069
:109590007FE700BF18620020A897030070B5254D33
:1095A0002B7A012B07D06FF0060001F02FFE4FF051
:1095B000FF34204670BD01F031FC10B94FF0FF3090
:1095C000F3E71D4A1D4E1E497068FF2382F82230C2
:1095D00092F82230D26863F0FF03DB4314BFB3FA82
:1095E00083F32023C3F12003C2F30222934298BFE6
:1095F000531CFE2202FA03F30F4ADBB2D37701F0C9
:1096000061FE04460028D9D101F0B0FE286101F0C6
:1096100099FE0C4801F092F901F0F6F93368DB0786
:109620004CBF0223032383F31488BFF36F8F0223FD
:109630002B72BEE71862002000ED00E0A89703003F
:109640002F9002003462002010B50F4C237A022BB9
:1096500013D101F07FFE01236372BFF34F8F0B4ADA
:109660005168C90042BF4FF000615160A3720423EA
:109670002372BDE81040FFF7EFBE6FF0070001F066
:10968000C5FD002010BD00BF1862002000ED00E005
:1096900038B51E4C237A042B054635D1FFF7DCFE86
:1096A000E26A854203462CBF00F1FF332B4612B11C
:1096B000D069C01AD061626C12B11069C01A106111
:1096C000E26813441544E360E3689D4213D102232A
:1096D0000020237201F0A0F900236372BFF34F8FC3
:1096E000A27A22B1A3720A4B4FF080525A60BDE8B1
:1096F000384001F027BE0133E36001F04BF9236DE0
:10970000002BE1D09847DFE738BD00BF186200208A
:1097100000ED00E0704738B504460D46FFF78EFEB9
:1097200029462046BDE8384001F032BD08B5FFF7B4
:10973000F1FFEFF3058333B16FF0050001F066FD33
:109740006FF0050008BDFFF77BFE0028F4D1DFF8BD
:1097500008C000DFF6E700BF7994020008B5EFF318
:10976000058333B16FF0050001F050FD6FF0050087
:1097700008BDFFF765FE0028F4D1DFF808C000DF60
:10978000F6E700BF9D95020008B5EFF305832BB106
:109790006FF0050001F03AFD002008BDFFF750FE14
:1097A0000028F5D1DFF804C000DFF6E74996020093
:1097B00008B50246EFF305832BB1BDE808406FF012
:1097C000050001F023BDFFF73BFE0028F5D1DFF8CF
:1097D00008C0104600DF08BD9196020010B598B190
:1097E00040EA010313F007030ED117290AD90160DB
:1097F000083910220C1884604260435081684A6026
:10980000C3600123184610BD0023FBE770B580B389
:1098100099B132F003032CD10F3121F0070600F18A
:109820000804234624685D68E11A25F00305491BF6
:109830008E4204D921680029F3D1084670BD016821
:10984000456801443544456051F8040C08398542A7
:1098500088BF4D605868324318B95A6003F1080157
:10986000EBE720F0030019181C504A60196008311A
:10987000E3E70021E1E710B580B1C1B1A1F108042F
:1098800000F108030022A34209D1596821F0030422
:109890004168091B41603AB95A60012010BD19683E
:1098A0001A4621B10B46EEE71B681360F5E7084640
:1098B000F4E730B5C0B189B1C2B1CBB10024C0E981
:1098C000014202FB01F41D190160C360436105619F
:1098D0001846013904D1A41A19510121084630BD96
:1098E000851805602846F4E70146F7E71146F5E7D5
:1098F0001946F3E710B50346A8B100F1140252E887
:10990000000F10B9BFF32F8F04E0016842E8001484
:1099100004B1F4E738B1043353E8002F511C43E895
:10992000001404B1F8E710BD30B5F0B1C3688B4244
:109930001BD803698B4218D900F114031A680A6016
:10994000BFF35F8F53E8002F0C689442F6D143E8D1
:10995000001505B1F2E7043050E8003F5A1E40E818
:10996000002101B1F8E7002030BD6FF00300FBE7F4
:10997000EFF310832BB9EFF31180003818BF0120EB
:10998000704701207047D1E9013223B19A608A689B
:109990001AB153607047C262F9E703637047000071
:1099A0002DE9F84F8846074638B131B1B0FA80F159
:1099B000B8FA88F30B441F2B06DC6FF0030100207C
:1099C00001F046FC002470E008F1030626F00306CF
:1099D0000C3606FB00F9F2B19468D2F800A0D2E987
:1099E00004513CB1A30702D1D368332B05D86FF0E3
:1099F0000801E4E7D368002BF9D13DB115F003036A
:109A000001D1894556D96FF00901D8E70029FAD16B
:109A10001CB18B460DE092461546284BD3F8A000AA
:109A2000E0B1FFF767FF0446A8B1002D40D14FF029
:109A3000010B224B0022D86F4946FFF7E7FE05468F
:109A4000C0B9BBF1000F06D01C4BD3F8A0002146D3
:109A500058B1FFF769FF6FF00401B0E7D3F8800059
:109A600001223421FFF7D2FEDDE7D3F88000FFF7B3
:109A700002FFF0E74A4600210CF072F94BF00203B6
:109A8000FA22A3700023C4E90983C4E90B332270CE
:109A9000A36032462B46C4F804A0394604F10C00FA
:109AA000FFF707FF054B064A1A672046BDE8F88F07
:109AB0000123E5E7002CE3D1AFE700BF18620020E7
:109AC000519B020010B500F1280353E8002F12B992
:109AD000BFF32F8F04E0511E43E8001404B1F4E7F4
:109AE0000AB9002010BDC06A01220028F9D0811CEB
:109AF000D1E84F3FC1E8442F04B1F9E7DBB2002BB6
:109B0000F0D08068F1E7036B30B5E3B1CD78002485
:109B1000DA78AA420FD31A46C1E901248AB19160CA
:109B2000A4B16160283050E8003F5A1C40E8002191
:109B300001B1F8E730BD5A681C46002AECD0134644
:109B4000E6E7C162ECE7C1E90133C1620163E9E71D
:109B5000F8B5877804468FB3C568014600272846C4
:109B6000FFF711FF277005F10C042046FFF7DCFE1C
:109B7000AB68002B48D02046FFF7BCFE0446002807
:109B800042D0284600F0DAFE3A460646394601F051
:109B900059F8304600F02EFF6A6A8168064604F1E3
:109BA0000C000BF0DFFFF9232370A770F368E3705C
:109BB00021462846BDE8F840FFF7A5BF8568AB6899
:109BC000002BF5D05B78832BF2D1284600F0B6FE4F
:109BD0003A460646394601F035F8304600F00AFFAD
:109BE00006466A6A806804F10C010BF0BBFFF3685B
:109BF0000BB1E2781A7000232370214605F10C00A6
:109C0000BDE8F840FFF790BEF8BD00002DE9F04137
:109C10000C4617469846054618B10378FA2B00D132
:109C200041B928466FF0030101F012FB6FF0030009
:109C3000BDE8F0818368C3B15B78832B15D100F058
:109C40007DFE01220646002100F0FCFF304600F0B8
:109C5000D1FE06466A6A806821460BF083FFF068F1
:109C60000028E5D007700020E2E705F10C00FFF7BF
:109C700041FE064670B121466A6A0C300BF072FF55
:109C80000024F9233370B470F77031462846FFF78B
:109C90003AFFE8E7B8F1000F10D04146932001F0F9
:109CA00079F840B1074B2846596900F035FEEFF3CB
:109CB0000983C3E902476FF00100B9E76FF00200C2
:109CC000B6E700BF186200202DE9F0410F461546A7
:109CD0009846044618B10378FA2B00D141B92046C2
:109CE0006FF0030101F0B4FA6FF00300BDE8F081FA
:109CF000FFF7E8FE064600283AD001462046FFF767
:109D000042FE626A06F10C0138460BF02BFF0DB1E2
:109D1000F3782B70002504F10C0735703146384676
:109D2000FFF702FEA3680BB90020DFE73846FFF714
:109D3000E1FD06460028F7D0204600F0FFFD294649
:109D40000746012200F07EFF384600F053FE626AAB
:109D50008168074606F10C000BF004FFF92333700D
:109D6000B570FB68F37031462046FFF7CCFEDBE7A9
:109D7000B8F1000F10D04146832001F00BF840B13C
:109D8000074B2046596900F0C7FDEFF30983C3E98B
:109D900002756FF00100A9E76FF00200A6E700BFAF
:109DA0001862002008B5064B08219A6ED86EFFF79E
:109DB000F7FD044BD864B0FA80F04009404208BD7A
:109DC000A8970300186200202DE9F04106460F46CF
:109DD00090461C46EFF305834BB196B930466FF0C1
:109DE000030101F035FA6FF00300BDE8F081FFF7E1
:109DF000BFFD0028F1D1DFF84CC03046234600DF1C
:109E0000F3E73378FA2BE9D1002FE7D0002CE5D126
:109E100006F10C00FFF76EFD054680B1726A394607
:109E20000C300BF09FFEF9232846C5E901762B7014
:109E3000AC7085F8038000F06DFC2046D5E76FF02C
:109E40000200D2E70D9C0200F8B504460F46164604
:109E50001D46EFF3058343B18CB920466FF0030133
:109E600001F0F6F96FF00300F8BDFFF781FD00285F
:109E7000F2D1DFF848C020462B4600DFF4E7237814
:109E8000FA2BEAD1002FE8D0002DE6D12046FFF7CB
:109E900019FE054670B100F10C01626A38460BF0FC
:109EA00061FE0EB1EB7833702846EC6000F032FCB6
:109EB0000020D9E76FF00200D6E700BFC99C02007E
:109EC000EFF310832BB9EFF31180003818BF012096
:109ED000704701207047000070B5A8B38468D0E9CE
:109EE00000566CB114F0030302D1C2681B2A1AD8C1
:109EF0006FF00801002001F09BF90024204670BD9E
:109F0000C368002BF4D1124BD3F8940030B9D3F8C6
:109F1000800001221C21FFF779FC01E0FFF7EAFC39
:109F2000044660B10123F522A3700023C4E9023383
:109F3000C4E904332270E67065602376DEE76FF0D3
:109F4000040101F075F9D9E705460646DBE700BFD5
:109F500018620020284B70B55D6904460E4635B97D
:109F60006FF0070101F064F94FF0FF3070BD10B1E0
:109F70000378F52B07D020466FF0030101F058F964
:109F80006FF00300F2E7037E53B9C0E90353EB6AB5
:109F9000436103B11861EC62012323760020E5E7F9
:109FA000C278D1070DD5C168A9420AD1FF2B06D1CD
:109FB0006FF00F0101F03CF96FF00200D6E70133BA
:109FC000EBE7002EF8D093070AD5E06895F920302A
:109FD00090F920209A4203DA80F8203000F0C0FC8B
:109FE0003146532000F0D6FE18B12946204600F035
:109FF00093FC6FF00100B9E7186200202E4B5A69FC
:10A0000070B5044632B96FF0070101F011F94FF055
:10A01000FF3070BD10B10378F52B07D020466FF0EC
:10A02000030101F005F96FF00300F2E7037E33B995
:10A030006FF00E0101F0FCF86FF00200E9E7C16873
:10A04000914202D06FF00D01F4E7013BDBB20376E1
:10A0500013BB43690BB1016919612169F1B14B610E
:10A0600092F92130D56ADDB982F82030A36883B136
:10A07000204600F063FC06462A46294600F0E2FD31
:10A08000F36A6361C4E9036503B11C610123F462EF
:10A090002376002000F0C0FC0020BAE7D362DFE79F
:10A0A000E978890706D5A96821B191F920108B427A
:10A0B000B8BF0B466D69D6E71862002070B504463C
:10A0C00010B10378F52B07D020466FF0030101F0A3
:10A0D000AFF86FF0030070BD037EBBB16369C06869
:10A0E0000BB122691A61226902B3536190F92120F0
:10A0F000C36AEBB990F92030934203D080F8202056
:10A1000000F02EFCA068F8B900F086FCA0780026CC
:10A1100010F001002670DED0134BD3F89450214686
:10A12000DDB12846FFF700FC3046D4E7C362DDE727
:10A13000D978890706D5996821B191F920108A420A
:10A14000B8BF0A465B69D4E7204600F0F7FB00225F
:10A150006FF0020100F076FDD4E7D3F88000FFF73E
:10A160008AFB2846B7E700BF186200202DE9F041BE
:10A170000446002601270CB9BDE8F081E378D4F845
:10A1800014801B0712D5A36826767BB1204600F009
:10A19000D5FB00220546114600F054FDEB6A6361D1
:10A1A000C4E9035603B11C61EC6227764446E2E73A
:10A1B00010B4C3789B071DD5C06890F92120C36AED
:10A1C000DC78A40709D59C688C4208BF8C6824B150
:10A1D00094F92040A242B8BF22465B69002BEFD120
:10A1E00090F92030934205D080F820205DF8044B90
:10A1F00000F0B6BB5DF8044B7047000008B502469E
:10A20000EFF3058333B100206FF0050101F010F882
:10A21000002008BDFFF754FE0028F4D1DFF808C085
:10A22000104600DFF5E700BFD99E020008B50246E0
:10A23000EFF305833BB110466FF0050100F0F8FF26
:10A240006FF0050008BDFFF73BFE0028F3D1DFF8F3
:10A2500008C0104600DFF5E7559F020008B502462A
:10A26000EFF305833BB110466FF0050100F0E0FF0E
:10A270006FF0050008BDFFF723FE0028F3D1DFF8DB
:10A2800008C0104600DFF5E7FD9F020008B5024652
:10A29000EFF305833BB110466FF0050100F0C8FFF6
:10A2A0006FF0050008BDFFF70BFE0028F3D1DFF8C3
:10A2B00008C0104600DFF5E7BDA00200EFF31083F1
:10A2C0002BB9EFF31180003818BF0120704701202F
:10A2D00070470C30D0E85F3F13B9BFF32F8F04E015
:10A2E0005A1EC0E8512F01B1F4E798B2003818BFE8
:10A2F0000120704730B500F10C02C189D2E85F3F00
:10A30000994202D8BFF32F8F04E05C1CC2E8554F7E
:10A3100005B1F3E7C0899BB2984294BF00200120A9
:10A3200030BD0000F8B50E464FF6FE73411E99424F
:10A33000054601D8B04207D26FF00301002000F0BB
:10A340007DFF00242046F8BD1AB39468176844B115
:10A3500014F0030302D1D2680F2A0ED86FF008015F
:10A36000ECE7D368002BF9D1114BD3F8980090B1EA
:10A37000FFF7C0FA0446A8B10123A3700023F62218
:10A38000A3600B4B22700B4A6760A681E5819A6639
:10A39000D8E71746E8E7D3F8800001221021FFF73D
:10A3A00035FAE7E76FF0040100F048FFCAE700BFA5
:10A3B0001862002029A4020070B5054610B1037888
:10A3C000F62B07D028466FF0030100F037FF6FF03F
:10A3D000030070BD836863B1284600F0AFFA002225
:10A3E0006FF0020100F02EFCA8680028F4D100F004
:10A3F00013FBAB78002613F001032E700FD0094B2E
:10A40000D3F89840294624B12046FFF78DFA30460C
:10A41000DFE7D3F88000FFF72EFA2046D9E7184689
:10A42000D7E700BF18620020836810B504465BB10F
:10A43000FFF74FFF40B1204600F080FA0022BDE850
:10A440001040114600F0FEBB10BD38B5054610B1F6
:10A450000378F62B07D028466FF0030100F0EEFEDC
:10A460006FF0030038BD84683CB100F067FA012248
:10A47000002100F0E7FB0020F4E7FFF73BFF38B9CD
:10A4800028466FF0100100F0D9FE6FF00200E9E7F6
:10A490002046E7E738B50D46044610B10378F62BA1
:10A4A00007D020466FF0030100F0C8FE6FF00300F4
:10A4B00038BDFFF70EFF68B975B12946632000F07B
:10A4C00069FC20B1064B2046596900F025FA6FF06F
:10A4D0000100EDE70020EBE76FF00200E8E700BFC6
:10A4E0001862002010B50446EFF3058333B1002055
:10A4F0006FF0050100F0A2FE002010BDFFF7DEFEA8
:10A500000028F4D1DFF808C0204600DFF5E700BFDF
:10A5100025A3020010B502460C46EFF3058343B1B4
:10A5200082B910466FF0030100F088FE6FF003005F
:10A5300010BDFFF7C3FE0028F2D1DFF824C010469B
:10A5400000DFF5E71378F62BEBD1002CE9D11046AC
:10A55000FFF7BFFE002814BF00206FF00200E7E7FE
:10A5600095A4020010B50446EFF3058343B184B906
:10A5700020466FF0030100F061FE6FF0030010BD94
:10A58000FFF79CFE0028F2D1DFF830C0204600DF44
:10A59000F5E72378F62BEBD12046FFF7ABFE20B191
:10A5A000204600F0B7F80020E9E720466FF01001E0
:10A5B00000F044FE6FF00200E1E700BF4BA4020090
:10A5C00008B50246EFF305833BB110466FF0050175
:10A5D00000F034FE6FF0050008BDFFF76FFE0028A5
:10A5E000F3D1DFF808C0104600DFF5E7B9A3020099
:10A5F00010B5D0E85F3F5A1C914200D80022C0E855
:10A60000542F04B1F5E798B210BD000038B51C4CCA
:10A6100000F0A6FEE3680133E36000F0BBF9002020
:10A6200000F0FAF9236D03B19847226C32B3A369A5
:10A63000E06BD969984202D0E36301B9DA61DA6963
:10A64000C2B9237A022B19D1656ABDB1E36B95F9C2
:10A65000202093F920309A4210D1284600F077F953
:10A66000E06B00F08FF9284600F0CEF9236CE5632B
:10A67000EB6103E0013ADA61002AE2D038BD00BFA5
:10A680001862002070B5224C04F1560504F15A06F8
:10A69000B4F85410D5E85F3F13B9BFF32F8F04E02F
:10A6A0005A1EC5E8502F00B1F4E79BB25BB33046A9
:10A6B000FFF79EFFE36D53F8200020B30378F13BD2
:10A6C000082BE5D801A252F823F000BFF1A6020042
:10A6D00091A60200F7A6020091A6020091A6020030
:10A6E000FBA60200FFA6020091A6020003A702003B
:10A6F000236E9847CCE7636EFBE7A36EF9E7E36E42
:10A70000F7E7236FF5E7BDE87040002000F084B95B
:10A710001862002070B5164C0546B4F8541004F1C8
:10A720005602D2E85F3F994202D8BFF32F8F04E070
:10A73000581CC2E8560F06B1F3E79BB2994205D800
:10A7400029460220BDE87040FEF7E5BF04F158003D
:10A75000FFF74EFFE36D43F82050637A23B9054BB2
:10A760004FF080525A6070BD0123A372FBE700BF17
:10A770001862002000ED00E0EFF310832BB9EFF337
:10A780001180003818BF01207047012070470378FE
:10A79000F12B00D07047C068F9E7000010B5C4691C
:10A7A000621CD0E904310CD103B1596142691AB17C
:10A7B00013610023436101E0074A13630023C3616F
:10A7C00010BD1BB1DA6959612244DA614269002A7D
:10A7D000EED1014AD362F1E71862002010B50A4AAF
:10A7E00090F9201001234370536A1C321BB193F976
:10A7F00020408C4205DCC0E90232906003B1D86091
:10A8000010BD1A469B68F1E718620020014B586999
:10A81000704700BF1862002010B5002303808378C2
:10A820009A07044608D513F0100F016B0E4B0FD09A
:10A83000D3F88400FFF778F8A378DB0712D50A4B2A
:10A84000D3F88800214638B1BDE81040FFF76CB856
:10A85000586FFFF710F8EFE7BDE81040D3F880001D
:10A86000FFF709B810BD00BF1862002008B500F05E
:10A87000F5FCDFF810C000DF4FF0FF31002000F0E2
:10A88000CBFCFEE7ADAC0200C278D207034601D490
:10A89000FFF7C2BF0422054942700022C2604A6B22
:10A8A000826002B1D0604B63704700BF1862002025
:10A8B000930710B502F0010422D400F1280384B1FB
:10A8C00053E8000F00EA01028A4203D0BFF32F8F42
:10A8D000002005E020EA010243E8002404B1EFE78C
:10A8E00010BD53E8000F084203D1BFF32F8F0020A3
:10A8F00005E020EA010243E8002404B1F1E7EFE7B4
:10A90000806A01EA00031CB18B4218BF0020E7E710
:10A91000002B08BF0020E3E710B591F920208368E1
:10A920001BB193F92040944205DAC1E902308160FD
:10A9300003B1D96010BD18469B68F1E783689A6837
:10A94000826002B1D0600022DA6018467047C268A7
:10A950002AB18368936003B1DA600023C360704753
:10A9600010B5044664B12378F12B07D0FFF7EFFF51
:10A9700001462046BDE81040FFF7CEBFE468F1E78E
:10A9800010BD00000123014643700148FFF7C4BF1A
:10A990003462002038B5164DEC6A44B3E369013BDC
:10A9A000E36123BB6378732B06D009D8532B0BD0FC
:10A9B00003F0DF03432B0DD12046FFF7E8FE09E04B
:10A9C00003F0EF03832BF6E72046FFF7E0FE214676
:10A9D000FFF7EEFB2046FFF7BAFFFFF7D3FF24692E
:10A9E00024B1E369002BDDD000236361EC6238BD44
:10A9F0001862002090F82230826B13F0100F0CBF09
:10AA0000602020201044704702234370014B98615E
:10AA1000704700BF1862002070B5124D04462E7AB0
:10AA2000696990B9022E0FD16C6A6CB194F920203B
:10AA300091F920309A4207DD2046FFF788FF08464B
:10AA4000FFF7CCFE6670AC6170BD022E05D190F9A7
:10AA5000202091F920309A42F1DC2046BDE8704078
:10AA6000FFF790BF186200202DE9F04F85B08046B7
:10AA7000029128B96FF0030100F0CEFB0024ABE097
:10AA8000002A48D0D2E900A3946896690193D2E9DC
:10AA900004B544B1A10702D1D268432A06D86FF0A9
:10AAA00008010020E8E7D268002AF8D1BBF1000FC6
:10AAB00008D01BF0070F02D1002D40F0A9806FF0E5
:10AAC0000A01EEE72EB1721E372A03D96FF00B018F
:10AAD000E7E71826002D40F09F804CBB534CD4F87C
:10AAE0008800F0B1FEF706FF0446002800F08D80D4
:10AAF0000127DFF83891BBF1000F32D1D5B94C4AAC
:10AB0000D9F88400556DA8B1FEF7F4FED0B147F036
:10AB10001007834621E09246934618261546019277
:10AB2000DCE7D4F8800001224421FEF76FFEDBE76A
:10AB30000027DEE7D9F874005A462946FEF766FE7C
:10AB40000028E6D1002F55D0D9F88820002A47D018
:10AB500021461046FEF7E8FE002447F00207002CCD
:10AB600053D040F2F11222800022C4E90222C4E94B
:10AB70000422C4E90622C4E90922C4E90B2BA5F189
:10AB800040025A44C4E90E28019B2A4AE37076B277
:10AB9000FD21A770C4F804A084F8206084F8216027
:10ABA00061846563CBF80020214A1268530723D4DF
:10ABB000A36B3422184600210BF0D2F81E4A1F4B1B
:10ABC000C0E90D284FF08072C263029A02622046EB
:10ABD000C9F86030FFF720FF204605B0BDE8F08FD0
:10ABE0002146D9F880000392FEF745FE039A1446E9
:10ABF0009346B2E73C46B0E725F00302443ACC2145
:10AC00000BF104000BF0ACF8D2E76FF0040148E759
:10AC1000002E7FF458AF18266A077FF450AF084A19
:10AC2000A5F1480191427FF658AF48E7186200202D
:10AC3000A8970300A52E5AE26DA8020069AC020095
:10AC4000B7FFFF7F38B505461446FFF7D3FE016016
:10AC50002846FFF7A3FD1CB1BDE83840FFF7DCBE76
:10AC6000BDE83840FFF78EBE10B54378332B04465D
:10AC70000CD1416A90F82320FFF71AFE014628B153
:10AC800020460022BDE81040FFF7DCBF10BD10B524
:10AC90000446806918B100221146FFF7D3FF63789C
:10ACA000232B02BFA36800229A6110BD70B50F4C20
:10ACB000267A022E18D1636AB3B16569E86AFFF794
:10ACC00055FA2846FFF7E3FF04F11C00FFF736FEB4
:10ACD0004670A061EFF30983AB63002363612846EC
:10ACE000BDE87040FFF7D0BD70BD00BF1862002006
:10ACF00010B5044610B10378F12B07D020466FF051
:10AD0000030100F089FA6FF0030010BD437803F0EF
:10AD10000F03022B1ED0032B2BD0012B2ED1FFF7BC
:10AD200016FEE06AFFF722FA2046FFF7B0FF6178CF
:10AD3000022926D11548FFF701FE154B4170986195
:10AD4000EFF30982A26300225A612046FFF79CFDBF
:10AD50000020DAE70E4B1A7A022A02D15B6A002B36
:10AD6000DFD16FF00201204600F056FA6FF00200CA
:10AD7000CBE7FFF7ECFDFFF711FDD2E76FF0020123
:10AD8000F2E70020FFF748FEDFE700BF3462002053
:10AD90001862002038B51F4C237A022B35D1636A24
:10ADA000002B34D063694A1C587016D1226B0021E5
:10ADB00072B94FF0FF30C3E90421D86159B10B617A
:10ADC0001548FFF7BBFD02234370A061012038BD89
:10ADD00011461269ECE72363F2E7E26A002012B140
:10ADE000D569A9420BD2C3E90420D96158B10361E6
:10ADF000002AE5D0D0695361401AD061E0E71046DF
:10AE0000491B1269EBE7E362F2E70020DFE718462F
:10AE1000DDE700BF186200203462002038B50D4C19
:10AE20000D48A26D0D4D0021FFF71EFE636EA86256
:10AE30005BB1984758B9E26DE96C206EFFF714FEDC
:10AE4000A864003818BF012038BD0120FCE70020AD
:10AE5000FAE700BFA897030089B10200186200203A
:10AE600010B50446EFF3058333B100206FF0050100
:10AE700000F0D2F9002010BDFFF77EFC0028F4D1CD
:10AE8000DFF808C0204600DFF5E700BF69AA02002E
:10AE900008B5EFF3058313B1054B586908BDFFF7FB
:10AEA0006BFC0028F8D1DFF80CC000DFF6E700BF2C
:10AEB000186200200DA8020010B5044600F0DAF96F
:10AEC000EFF305833BB120466FF0050100F0A4F9D4
:10AED0006FF0050010BDFFF74FFC0028F3D1DFF83D
:10AEE00008C0204600DFF5E7F1AC020030B50C4D9C
:10AEF0006B6C002213B11C698C420AD9C0E9022391
:10AF000001611BB11C699860641A1C612AB1D06090
:10AF100030BD1A46091BDB68ECE76864F8E700BF40
:10AF2000186200202DE9F041184D6C6C54B3236970
:10AF30006E69013B23610127236913BBE3680BB1F1
:10AF4000A2689A606B640023E86C1A4604F1180149
:10AF5000FEF73AFF58B1D5E90583214603206B611E
:10AF6000FEF7D9FB6B6913B9B04508BF0026E3783B
:10AF7000012B09D161692046FFF7B8FF6C6C002CEA
:10AF8000DAD16E61BDE8F0816770F7E718620020E2
:10AF900008B5FEF707FF18B9034B044A1A6508BD48
:10AFA0004FF0FF30FBE700BF1862002025AF020022
:10AFB00007B504464FF0FF33002269462046FEF7EE
:10AFC00043FF0028F6D1DDE900309847F2E70000A2
:10AFD00008B5094B094A1A60094B9B1A094A1360C4
:10AFE000094B0A4A1A600A4B9B1A0A4A136000F07E
:10AFF00051F800F069F800BF0480002000FC032035
:10B000000000042000800020BC040120F00B01207F
:10B0100000FC0320B80401200E4838B50E4B036035
:10B020000B250E4B45601C24C4608360FFF7E6F8D7
:10B030000B4B18600B480C4BC460C0E900350B4B40
:10B040008360FFF7DBF80A4B1860BDE838400AF070
:10B0500095B900BFD07F00207C980300E47F0020DA
:10B06000E07F0020A07F002089980300B47F0020AB
:10B07000B07F0020FDF706BE024B4FF0FF3118688D
:10B08000FFF7D4B8E07F0020014B1868FFF7E6B85F
:10B09000E07F002008B505F01DFBBDE8084000F08A
:10B0A00011B87047704708B500F042F8FFF7F9FF94
:10B0B000FFF7B2FFFFF7F6FF03F052FBBDE80840D1
:10B0C000FFF7D8BFFEF732BB114C124B23614FF490
:10B0D000004363614423E3600F4BA360182307B56B
:10B0E000A3610E480E4B236022460021FFF7B8FEF5
:10B0F000034628B90B49009022460B4803F038FB61
:10B10000FEF72CFB0023094900931A46F5E700BF20
:10B1100008000120088000202C000120A7B00200B8
:10B1200093980300989803001D010180B4980300D0
:10B130001FB5064B0FCB6C4684E80F002046FFF787
:10B140005DF8034B186004B010BD00BFDC9803002D
:10B150007000012073B506460C46154603F002FB4D
:10B1600058B906342ABF064B064953F82410002369
:10B1700000933246284603F0FBFA02B070BD00BFD0
:10B18000A09A0300F499030008B500F0F3F800005A
:10B1900007B50023411E009302460023042919D855
:10B1A000DFE801F003080C1014000C490C480122E0
:10B1B00003F0DEFA0B490C480222F9E70B490C4870
:10B1C0000322F5E70B490C480422F1E70B490C4830
:10B1D0000522EDE70B490C48EAE700BFEC980300B5
:10B1E000250102800D990300260102803299030097
:10B1F000270102806799030028010280A2990300B9
:10B200002A010280E299030000010280014A0146FE
:10B21000FFF7A0BF31010180014AFFF79BBF00BFCC
:10B2200032010180014AFFF795BF00BF370101805D
:10B23000014AFFF78FBF00BF3301018011F1110FE9
:10B2400002D0024AFFF786BF704700BF3401018079
:10B25000014AFFF77FBF00BF3801018010B5FFF73B
:10B2600017FE034B1B6813B1BDE81040184710BD13
:10B2700090000120024B1B6803B11847704700BFC4
:10B2800090000120024B987A003818BF01207047C7
:10B290001862002008B5FEF777FA0749002203F08C
:10B2A000F9FAC31C04D9054905488B2203F044F878
:10B2B000BDE80840FEF77CBA85B20200B89A0300E8
:10B2C000ED9A0300B0F57A7F38B50D4604D01849E1
:10B2D0001848322203F030F802F048FD041E13DB58
:10B2E00004F1604303F56143E02283F8002329461B
:10B2F000204604F0CDFC204604F0D2FC85420AD062
:10B300000B490D483F22E5E70C4B04F00F021344B4
:10B31000E0221A76EBE7002C07DB094A61090123DA
:10B3200004F01F04A34042F82130002038BD00BFC4
:10B33000B89A03001A9B0300279B0300FCEC00E073
:10B3400000E100E008B503F02DFABDE8084002F086
:10B3500002BE0000014B186802F032BEE803012073
:10B36000014B186802F0EEBDE803012008B502F0B9
:10B37000FDFC08BD08B5024C23689847FCE700BFF8
:10B38000BC62002003680BB1084618477047CB68C1
:10B39000C3600BB15B68184770470000044B002284
:10B3A000C3E900229A601A61024ADA60704700BF5E
:10B3B0009400012085B3020038B504460D460021F3
:10B3C00000F8011B10220AF0CBFC6582204638BD34
:10B3D00008B542F602110248FFF7EEFF08BD00BFB4
:10B3E000A8000120C36810B52BB9054905484FF4E2
:10B3F000FD7202F0A1FFBDE810401B68184700BFB6
:10B40000549B0300839B0300034B1A78034B53F8B0
:10B41000223003B118477047C0620020BC000120F1
:10B42000074B1B785BB1074B0122C3F80823064B7F
:10B430005A78FF2A00D1FEE7044A12885A707047F2
:10B44000D401012000F00040D0000120D6010120ED
:10B45000F8B50546064655F8044B8CB90D4F3868CB
:10B4600018B14FF0FF31FEF7E1FE346824B92846E9
:10B4700003F006FF2C463560386808B1FEF7EEFE93
:10B48000AC4204D0044905488B2202F055FF204607
:10B49000F8BD00BF700001208F9B0300C29B03001A
:10B4A000036801221B6900211847036800221B69F9
:10B4B0001146184707B5019002F0E8FF01980121F5
:10B4C00004F046FF03B05DF804EB02F0F5BF07B5EA
:10B4D000019002F0DBFF0198002104F039FF03B076
:10B4E0005DF804EB02F0E8BF07B5CDE9001002F00B
:10B4F000CDFFDDE9001004F009FF03B05DF804EBB7
:10B5000002F0DABF07B5CDE9001002F0BFFFDDE9B8
:10B51000001005F06FF803B05DF804EB02F0CCBF4B
:10B5200007B5CDE9001002F0B1FFDDE9001005F02C
:10B53000B6F803B05DF804EB02F0BEBF90F821301E
:10B5400010B5044623B903F0D7F9012384F821305C
:10B5500010BD90F8213010B5044623B103F0E2F994
:10B56000002384F8213010BD10B5044602F08EFF90
:10B5700094F8223053B994F92010204604F0F2FFD9
:10B580002046FFF7DBFF012384F82230BDE810409E
:10B5900002F092BF10B500230022044680F820106C
:10B5A00080F8213080F8223042628362FFF7DCFFAE
:10B5B000204610BD10B5044602F068FF94F8223012
:10B5C00043B1204604F0FCFF2046FFF7C2FF0023F2
:10B5D00084F82230BDE8104002F06EBF10B504467A
:10B5E000FFF7E8FF204610BD7047416830B40346BE
:10B5F00071B1D0E9032000F0010402B944B1451053
:10B6000001EB60000CB149598A58996830BC104769
:10B6100030BC704770B500F14C0690F9DF2090F90E
:10B62000DE100446304605F0F9FAD4E939530DB975
:10B63000DA070ED55A1004EB6300DB0748BFA358A6
:10B6400094F8EC1048BF5D5994F9ED2094F9EE3070
:10B65000A847D4F8D810304605F0F6FB224630460D
:10B660000249BDE8704005F0CDBC00BF41B9020001
:10B670002DE9F0411F46D0F8E03004460D4616464D
:10B680002BB11749174840F22B1202F055FE164A0B
:10B69000C0E9392303681B68984784F8EC5084F8A4
:10B6A000ED6084F8EE70032D0BD8DFE805F015028D
:10B6B00010154FF0FF333246012104F14C0005F024
:10B6C0007BFC236820465B68BDE8F04118473346A1
:10B6D0004FF0FF320221F0E73B4632462946ECE7C5
:10B6E000E59B03000D9C030071B602002DE9F041BB
:10B6F00098461D4B03601D4B436000251C4B856025
:10B700000446C0E90555C0E907550F461646C36013
:10B71000858445634564A0F848506C222946006141
:10B720004C300AF01DFB40F20113A4F8DC304FF45A
:10B730007F43A4F8EC30FF232046C4E93558C4E920
:10B740003855C4E93C55C4F8C45084F8DE7084F818
:10B75000DF60C4F8E85084F8EE30C4F8F850FFF722
:10B7600059FF2046BDE8F0812C9C030015B602006D
:10B77000EBB5020070B50646044656F84C3B0D4644
:10B780001B6898473046294605F05EFB2368C4F8DD
:10B79000D85020465B68BDE8704018477FB5054625
:10B7A000044655F84C6B0193CDE902213668B04749
:10B7B000DDE901322846039905F0C6FB23685B6882
:10B7C000204604B0BDE87040184738B50546044629
:10B7D00055F84C3B1B689847284605F0C7FC236882
:10B7E00005465B6820469847284638BD38B505466B
:10B7F000044655F84C3B1B689847284605F0D6FC94
:10B80000236805465B6820469847284638BD03688C
:10B810002DE9F34105461B6816460F46984795F8F3
:10B82000DC30340103B1B6B195F8DD300BB1012E37
:10B8300011D0B8342819B84206D00190FBF774FD36
:10B8400001983946FFF7A3FD2B685B68284602B0D4
:10B85000BDE8F0411847B83402F018FE2C44FA68ED
:10B86000E36805F14C089AB10BB903F045F8A7421B
:10B8700006D02046FBF758FD39462046FFF787FDE6
:10B8800001223146404605F0CDFB02F015FEDBE714
:10B890000BB103F047F82046FBF746FD0022E260BB
:10B8A000EFE7000030B51B4B036085B000252A464A
:10B8B000694604460395FFF7AAFF6846FBF734FD87
:10B8C0000122694620460395FFF7A1FF6846FBF772
:10B8D0002BFD94F8DC3013B994F8DD301BB104F182
:10B8E0004C0005F07BFA04F1C800FBF71DFD04F1E4
:10B8F000B800FBF719FD04F13800FBF715FD04F162
:10B900002800FBF711FD206A08B102F063F8204619
:10B9100005B030BD2C9C030010B50446FFF7C2FFF4
:10B920002046FC2103F00EFB204610BD4C3005F0F4
:10B93000A5BB10B54C300C4605F0E2FB204610BD0F
:10B9400000EB0110B83008B5C3680BB1FFF74AFD32
:10B9500008BD036870B504461B680D46984794F807
:10B96000DC30AB422BD065B194F8DD304BB9A26826
:10B970006368511004EB6200D20744BF6258D35889
:10B98000984702F083FD05B3D4F8C4305BB104F1ED
:10B99000B800FFF727FD02F0AFFF0122002104F1FC
:10B9A0004C0005F03FFB02F087FD84F8DC5035B910
:10B9B00094F8DD301BB904F14C0005F00FFA236850
:10B9C00020465B68BDE8704018472A46294604F1C6
:10B9D0004C0005F027FBD4F8C430002BE3D002F074
:10B9E000A1FFE0E7036870B504461B680D46984761
:10B9F00094F8DD30AB422BD065B194F8DC304BB914
:10BA0000A2686368511004EB6200D20744BF625819
:10BA1000D358984702F03AFD05B3D4F8D4305BB15F
:10BA200004F1C800FFF7DEFC02F066FF01221146B8
:10BA300004F14C0005F0F6FA02F03EFD84F8DD500A
:10BA400035B994F8DC301BB904F14C0005F0C6F9A7
:10BA5000236820465B68BDE8704018472A460121EC
:10BA600004F14C0005F0DEFAD4F8D430002BE3D01A
:10BA700002F058FFE0E7437D10B504461BB1037D9B
:10BA80000BB102F04FFF204610BD13B5044601A8CC
:10BA900001F0A8FF637D53B9237D0BB102F02CFFA9
:10BAA000206901F05DFFC4E900010123637501A86D
:10BAB00001F0A0FF02B010BD37B504460D4601A845
:10BAC00001F090FF00230022C4E900236B7D4BB1FD
:10BAD000286901F045FFD5E90032C01A61EB020187
:10BAE000C4E9000101A801F085FF204603B030BD84
:10BAF00030B585B004460D4603A801F073FF294612
:10BB00006846FFF7D9FFD5E90221009B9B18019AEF
:10BB100042EB0102C4E9003203A801F06BFF2046AA
:10BB200005B030BD13B5044601A801F05BFF2069E4
:10BB300001F016FF00220023C4E90001C4E902233A
:10BB400001A801F057FF02B010BDD0B500230026B8
:10BB50000027C0E90067C0E9026704460161027579
:10BB60004375FFF7DFFF2046D0BD10B5044601F056
:10BB70001DFF012201462046FFF7E7FF204610BDCA
:10BB800010B5044601F0E6FC002201462046FFF70E
:10BB9000DCFF204610BD03681B68184710B504463B
:10BBA000074B236000220023C4E902230023084638
:10BBB000A161C4E90433034901F062FE204610BDCF
:10BBC000449C030097BB020007B5009000F10801F8
:10BBD000806901F092FE03B05DF804FB00F10801FA
:10BBE000806901F0A2BE002070476FF01C00704712
:10BBF0006FF01C0070476FF0150070476FF0150074
:10BC000070470120704701207047002070470020D6
:10BC1000704770B511F0010405468EB204D0FFF7ED
:10BC2000D4FD041E18BF0124F30605D52846FFF7EE
:10BC3000DDFD08B144F01004204670BDA0F1FC0009
:10BC4000FFF7E7BF08B5FFF784FE002008BDA0F1AD
:10BC5000FC00FFF7F7BF08B5FFF7C4FE002008BDE2
:10BC6000A0F1FC00FFF7F7BF10B5034B03600446DB
:10BC7000FFF718FE204610BD509C0300A0F1FC0009
:10BC8000F2E700BF10B50446FFF7EEFF20464FF481
:10BC9000807103F057F9204610BDA0F1FC00F1E7D8
:10BCA0002DE9F04106460D461746C2B102F0EBFB06
:10BCB00080F0010313F0FF0403D0336830461B68A3
:10BCC000984705EB070815F8011B3046FFF731FED2
:10BCD000A845F8D11CB1336830465B6898473846B0
:10BCE000BDE8F081A0F1FC00FFF7DABF38B50446EB
:10BCF0000D4662B103681B6898472046FFF716FEA1
:10BD00002870236820465B689847012038BD10469C
:10BD1000FCE7A0F1FC00FFF7E9BF000010B5044606
:10BD2000FFF7E4FC044B03F1080244332260C4F83B
:10BD3000FC30204610BD00BF489C030030B50568AC
:10BD400085B00446CDE9022101932D68A847DDE9BD
:10BD5000013220460399FFF78BFC23685B6820467D
:10BD600005B0BDE83040184730B5044685B004F151
:10BD7000080502F08BFB29466846FFF708FB2846BA
:10BD8000FBF7D2FAE0690023C4E9053308B103F0F8
:10BD9000FFFA02F091FB039B13B11B6868469847BA
:10BDA0006846FBF7C1FA05B030BD00000022044927
:10BDB0004260C0E905220160C2610284704700BF91
:10BDC000249D0300074B10B503608369044623B12B
:10BDD00005490648262202F0AFFA0830FBF7A4FA1C
:10BDE000204610BD249D0300D49C0300FD9C03004D
:10BDF00070B504460E4602F049FBA56965B104F131
:10BE00000800FBF791FA00230122636184F82020E7
:10BE1000E36184F82160A36102F04EFB2DB121465D
:10BE20002846BDE8704000F02EB970BD08B103F09F
:10BE30002FBA02F02BBB08B103F048BA02F03CBBAA
:10BE40002DE9F041044686B00E46174602F01EFB6F
:10BE5000A56902F031FB35B301AD0021284603F09E
:10BE600071FA02F013FBD4E9068323B10F4910489D
:10BE7000392202F061FAE56102F01EFBB8F1000F11
:10BE80000ED03946284603F065FA48B93046FFF728
:10BE9000CDFF20460121FFF7ABFF3046FFF7CBFF78
:10BEA000284603F078FA06B0BDE8F081D49C030080
:10BEB0000B9D03000022C0E90122012201600273F0
:10BEC00070477047037B33B1D0E900231268934277
:10BED0008CBF00230123184670472DE9F041046808
:10BEE000012606FA01F10023271D82EA060E17F843
:10BEF00013400C4204D004F030043AB1102C07D1A6
:10BF00000233202BF3D14FF0FF300DE0002CF7D09F
:10BF1000D0F808C042EA030506FA05F818EA0C0F43
:10BF2000EED1202C02D02846BDE8F0814EEA030471
:10BF300006FA04F414EA0C0FF5D0E1E770B50D46EB
:10BF400011462A4604461E46FFF7C7FF002802DABC
:10BF50000020207370BD25686368420805EB8205E8
:10BF6000E98819446B7906FB031363600121A36818
:10BF700081400B4342EAC010A360C0B2EAE7134617
:10BF80000A460121FFF7DABF13460A460021FFF7F0
:10BF9000D5BF13B50A46019100210446FFF7EFFF14
:10BFA000019A0021204602B0BDE81040FFF7ECBF27
:10BFB0000022C0E9002270477047006870470023E4
:10BFC0000B60436813B90160416070471960FBE77B
:10BFD00003682BB11A6802B94260026000221A603D
:10BFE0001846704710B50468002223468B420ED1D4
:10BFF0000AB10B6813608C4204BF0B68036043688E
:10C000008B424FF0000308BF42600B6010BD002B55
:10C01000FCD01A461B68E9E710B50446FFF7C8FFD5
:10C02000204610BD08B5FFF7C8FFB0FA80F0400900
:10C0300008BD70B505462846FFF7BFFF044678B136
:10C0400050F8043C061F9B683046984740B128468C
:10C05000FFF7BEFF54F8043C3046DB689847EAE738
:10C0600070BD70B504460D46FFF7A7FFAC610646EC
:10C07000291D2046FFF7A3FF26B92046BDE87040E2
:10C08000FFF7D7BF70BD70B505460C46FFF795FFAB
:10C09000064604B1043421462846FFF7A3FFA64212
:10C0A00004D12846BDE87040FFF7C3BF70BD10B58E
:10C0B00004462046FFF781FF28B150F8043C0438BD
:10C0C000DB689847F5E710BD10B50446FFF7EFFFB2
:10C0D0002046FFF771FF204610BD70477047036888
:10C0E0009B6D184770B586B0154B01930023ADF8D2
:10C0F00008308DF80A3040F20123ADF8123040F2DA
:10C10000031390F8204341680289ADF8143000F120
:10C110000A038DF80B400391ADF8102001AC05AE79
:10C120001D46224603CAB24218605960144603F104
:10C130000803F6D112881A80284606B070BD00BFE9
:10C1400012010002004870470CA00300004870472D
:10C1500044A003000048704710A003000048704747
:10C1600056A00300004870473CA0030000487047F9
:10C1700026A00300036810B504465B6F9847D4F807
:10C18000EC0203681B6F9847236820469B6FBDE84D
:10C190001040184738B5D0F83433012B044610D17D
:10C1A0000025D4E9C93000F0010203B94AB14110B9
:10C1B000C4E9C95504EB60000AB16258D3589847E6
:10C1C000EFE7D4F834332BB90649074840F2C6628A
:10C1D00002F0B2F8013BC4F83433BDE8384002F055
:10C1E0006BB900BF349D03005F9D030008B5D0F814
:10C1F00034332BB90349044840F2CD6202F09CF875
:10C2000008BD00BF349D03005F9D030010B50446C8
:10C2100002F03CF9D4F834330133C4F834332BB989
:10C22000034904484FF4D76202F086F810BD00BFFE
:10C23000349D03005F9D0300036837B5DB6F0D4637
:10C240000446984715F0700F01D12B0706D1002343
:10C250001049114800931A4602F08AFA6B0003F065
:10C260001E0343EAD5118B1E182000FB034393F8ED
:10C2700031206AB1013900FB0140013A043083F8F2
:10C280003120C36823B11B6803B0BDE830401847B4
:10C2900003B030BD6B9D030004011580036873B5C6
:10C2A0000446DB6F9847B4F8F8120B0A022B25D02E
:10C2B000032B56D0012B04D1236820461B6B9847D3
:10C2C00008B9002018E0236820461B6B98470678C1
:10C2D000122EF6D1236820461B6B98474578012D16
:10C2E000EFD12368C4F804631B6B2046984784F899
:10C2F0000853C4F80003284602B070BD2368C9B2D1
:10C300005B6B0191204698470028DAD02368019999
:10C310005B6B2046984703780199092BD1D123689C
:10C3200020465B6B984743780199022BC9D123685B
:10C3300020465B6B9847236885785B6B01992046A4
:10C340009847C378019945EA03252368C4F8045344
:10C350005B6B20469847C4F80003012084F808036B
:10C36000CAE7C9B20529ACD8DFE801F0030F1923E9
:10C370002D37236820469B6B98470378C4F8043315
:10C3800023689B6B20469847E5E723682046DB6BD4
:10C3900098470378C4F804332368DB6BF2E723681B
:10C3A00020461B6C98470378C4F8043323681B6C41
:10C3B000E8E7236820465B6C98470378C4F80433A9
:10C3C00023685B6CDEE7236820469B6C9847037804
:10C3D000C4F8043323689B6CD4E723682046DB6CE5
:10C3E00098470378C4F804332368DB6CCAE70B78FA
:10C3F000DB0913700B78C3F3411353700B7803F010
:10C400001F0393704B78D3704B8893808B88D380B5
:10C41000CB88138170470000036870B504465B6FDA
:10C420000D46984794F80C33022B05D009490A4869
:10C4300040F23D1201F080FF084BC4F82433002382
:10C44000C4F82833236884F8105320469B6FBDE856
:10C4500070401847349D03008A9D030041C90200C3
:10C4600038B503680446DB6F984794F8083313B176
:10C470000025284638BDD4F8EC0203685B6C984769
:10C48000D4F804239042F3D8D4F80013121A0144CC
:10C49000C4F80013C4F80423A2B994F80A53022381
:10C4A00084F80C3345B1236884F80A239B6E04F5A5
:10C4B0003D7120469847DCE701212046FFF7ACFF9D
:10C4C0000125D6E7D4F8EC02D4F820430368A24251
:10C4D0001B6C28BF22469847F2E70000036813B59B
:10C4E0000446DB6F984794F81C33012B06D80023D1
:10C4F0000F4900931A460F4802F03AF994F80C33AA
:10C5000023B100230C4900931A46F4E794F80B3347
:10C51000032B0BD02046FFF7A3FF38B9D4F8EC0269
:10C520000368DB6C02B0BDE81040184702B010BDD4
:10C53000B59D03000E011580DD9D030038B503682D
:10C540000446DB6F984794F80833012B3BD1D4F8AD
:10C55000045335B994F809330BB901252CE084F85C
:10C560000953D4F82033D4F8EC02D4F800139D42D8
:10C5700028BF1D4603682A469B6C9847D4F80033B1
:10C580002B44C4F80033D4F804335B1BC4F80433E1
:10C59000002BE2D194F80923002ADED194F80A5343
:10C5A000022384F80C334DB1236884F80A239B6E70
:10C5B00004F53D7120469847284638BD01212046A4
:10C5C000FFF72AFFC9E70025F6E70000036813B567
:10C5D0000446DB6F984794F81C33012B06D80023E0
:10C5E0000B490C4800931A4602F0C2F894F80B333A
:10C5F000032B0BD02046FFF7A1FF38B9D4F8EC028B
:10C600000368DB6C02B0BDE81040184702B010BDF3
:10C61000B59D03000E011580036870B504465B6F7D
:10C620000D46984794F80C33032B05D009490A4866
:10C630004FF4C37201F080FE084BC4F8243300238A
:10C64000C4F82833236884F8105320469B6FBDE854
:10C6500070401847349D0300279E0300FFD302005B
:10C6600010B503680446DB6F9847012004F21D33C0
:10C67000C4F80033C4F8040384F8080310BD036849
:10C6800010B50446DB6F984794F81C33042B01BFA8
:10C69000B4F82E33A4F8FA32012004F54C7303BF2A
:10C6A000C4F80033C4F8040384F80803002010BD64
:10C6B000036810B5DB6F04469847042384F80C33F5
:10C6C000236894F8F8221B6FB4F8FA1220469847B2
:10C6D000012010BD036870B504465B6F0D46984796
:10C6E00094F80C33042B05D009490A484FF4EB7237
:10C6F00001F022FE084BC4F824330023C4F8283389
:10C70000236884F8105320469B6FBDE8704018479B
:10C71000349D0300539E0300D1C90200036810B585
:10C720000446DB6F984794F81C33042B02D0B4F80E
:10C73000FA3233B994F8F632012B25D0022B02D00D
:10C7400023B300201FE0B4F8FA2222F08F03002B5D
:10C75000F7D112F00F030CD0530003F01E0343EA8D
:10C76000D213023B182202FB034393F83030C3F389
:10C770004003074AC4F80023138001200223C4F8B1
:10C78000043384F8080310BD0023F2E70123F0E727
:10C79000D801012010B50368044690B0DB6F9847BC
:10C7A000D4F8EC02D4F8202303686946DB6B984781
:10C7B00004F53D7269462046FFF719FE0023C4F8D0
:10C7C0000833C4E9C033012384F80C3323681146CD
:10C7D0005B6E984710B010BD036813B50446DB6F5D
:10C7E000984794F81C33012B06D800230A490B48BC
:10C7F00000931A4601F0BCFF94F80C23012384F83F
:10C800002C332AB9204602B0BDE81040FFF7C2BF62
:10C8100084F82D3302B010BDB59D03000E011580C4
:10C820002DE9F0411D46036804465B6F0F4616462E
:10C83000984794F80C33012B05D00B490B4840F274
:10C84000BA2201F079FD0A4BC4F824330023C4F85E
:10C850002833236884F81073C4E9C56520469B6FAC
:10C86000BDE8F041184700BF349D03007B9E0300E4
:10C8700073D20200036870B50446DB6F9847B4F8C2
:10C88000FC2292B394F8F41294F80833012925D1CC
:10C89000012B06D0D4F8EC020368DB6CBDE87040D5
:10C8A0001847D4F80433934201D9C4F8042301296A
:10C8B000D4F8043326D1934208D2D4F82023B3FB12
:10C8C000F2F002FB10330BB984F80913022384F849
:10C8D0000B332046BDE87040FFF730BE002BD9D1A6
:10C8E000D4F804339342E2D0D4E7D4F8EC02D4F87D
:10C8F00004230368002AD0D1032184F80B139B6C16
:10C9000011460EE0D4F8EC020122016884F80B23F2
:10C91000D4F820230D6CD4F800139A4228BF1A468D
:10C920002B46BDE87040184710B503680446DB6F1E
:10C930009847002384F82D33032384F80B3310BD6C
:10C94000036810B5DB6F04469847002284F80C2377
:10C9500094F82D2394F8103322B12046BDE81040FE
:10C96000FFF7E2BF33B9D4F8EC020368BDE810402A
:10C97000DB6C184794F80B33012B0AD1D4F8EC0286
:10C98000032384F80B3303689B6CBDE81040114609
:10C990001847022B07D1D4F8EC02032384F80B3399
:10C9A00003681B6CF1E710BD036810B5DB6F04462C
:10C9B0009847002384F82C3394F80C3323B920468D
:10C9C000BDE81040FFF7B0BF012384F82D3310BD40
:10C9D000036810B5DB6F04469847002284F80C23E7
:10C9E00094F82D2394F8103322B12046BDE810406E
:10C9F000FFF79ABF63B1B4F8FA32A4F82E33B4F853
:10CA0000F83284F830332046BDE81040FFF732BFDB
:10CA1000D4F8EC020368BDE81040DB6C18470368EB
:10CA200010B504465B6F984794F8F03283B9D4F898
:10CA3000EC02036821469B689847D4F8EC0203682F
:10CA400040219B6B98470123C4F8200384F8F032FF
:10CA5000236820469B6FBDE81040184738B503682F
:10CA600004465B6F984794F81C53236820469B6FDD
:10CA7000EDB298472B1F5842584138BD036810B596
:10CA80005B6F044698472046FFF7C9FF94F8F132E0
:10CA90003BB9D4F8EC0203685B699847012384F83A
:10CAA000F132236820469B6FBDE810401847000014
:10CAB0002DE9F04F904685B002680391526F0293C2
:10CAC000DDF8389005469047039911F0700F03D1B7
:10CAD00011F00F0F029B06D100232B492B48009326
